:020000040800F2
:10000000680A0020890100081D040008ED030008AB
:1000100019040008C3020008370E000800000000A1
:10002000000000000000000000000000450B000878
:10003000C702000800000000030B0008310C000894
:10004000A3010008A3010008A3010008A301000800
:10005000A3010008A3010008A3010008A3010008F0
:10006000A3010008A3010008A3010008A3010008E0
:10007000A3010008A3010008A3010008A3010008D0
:10008000A3010008A3010008A3010008A3010008C0
:10009000A3010008A3010008A3010008A3010008B0
:1000A000A3010008A3010008A3010008A3010008A0
:1000B000950C0008A3010008A3010008A301000893
:1000C000A3010008A3010008A3010008A301000880
:1000D000A3010008A3010008A3010008A301000870
:1000E000A3010008A3010008A301000800F002F822
:1000F00000F03AF80AA090E8000C82448344AAF188
:100100000107DA4501D100F02FF8AFF2090EBAE885
:100110000F0013F0010F18BFFB1A43F0010318473B
:10012000BC1D0000DC1D0000103A24BF78C878C157
:10013000FAD8520724BF30C830C144BF04680C60ED
:10014000704700000023002400250026103A28BF35
:1001500078C1FBD8520728BF30C148BF0B60704739
:100160001FB51FBD10B510BD00F076F81146FFF7A2
:10017000F7FF00F063FE00F094F803B4FFF7F2FF1E
:1001800003BC00F097F80000094880470948004781
:10019000FEE7FEE7FEE7FEE7FEE7FEE7FEE7FEE737
:1001A000FEE7FEE704480549054A064B7047000094
:1001B000350C0008ED00000868040020680A0020E3
:1001C00068060020680600204FF0013C50F8042B20
:1001D00051F8043B9A4221D1A2EB0C03934313EA5A
:1001E000CC1317D150F8042B51F8043B9A4215D187
:1001F000A2EB0C03934313EACC130BD150F8042B5E
:1002000051F8043B9A4209D1A2EB0C03934313EA41
:10021000CC13DBD04FF00000704700BFD01A01BAFA
:10022000B1FA81F101F0180122FA01F0CB40C1F1DD
:100230002001DBB2C0B2C01A2CFA01F3D11A9143EB
:1002400011EAC311E6D1704770477047704700004C
:1002500000487047040400207546FFF7F9FFAE46DA
:1002600005006946534620F00700854618B020B5C2
:10027000FFF798FFBDE820404FF000064FF0000761
:100280004FF000084FF0000B21F00701AC46ACE83E
:10029000C009ACE8C009ACE8C009ACE8C0098D46AB
:1002A000704710B50446AFF300802046BDE810400B
:1002B000FFF763BF01491820ABBEFEE7260002002E
:1002C000704700BFFEE770472DE9F0410246002568
:1002D0000026002000230024002791F803C00CF022
:1002E0000F0591F803C00CF0100CBCF1000F03D007
:1002F00091F802C04CEA050591F800C0BCF1000F6E
:1003000031D0146800202BE04FF0010C0CFA00F300
:10031000B1F800C00CEA03069E4220D183004FF0E2
:100320000F0C0CFA03F7BC4305FA03FC4CEA040477
:1003300091F803C0BCF1280F06D14FF0010C0CFA64
:1003400000FCC2F814C00AE091F803C0BCF1480FE9
:1003500005D14FF0010C0CFA00FCC2F810C0401C93
:100360000828D1D31460B1F800C0BCF1FF0F34DD10
:10037000546800202EE000F1080C4FF0010808FA44
:100380000CF3B1F800C00CEA03069E4221D18300B1
:100390004FF00F0C0CFA03F7BC4305FA03FC4CEAD0
:1003A000040491F803C0BCF1280F05D100F1080C3A
:1003B00008FA0CF8C2F8148091F803C0BCF1480F99
:1003C00007D100F1080C4FF0010808FA0CF8C2F848
:1003D0001080401C0828CED35460BDE8F081016134
:1003E00070470AB1016100E04161704700BFFEE75C
:1003F00008B50121082000F095FB10208DF80300BE
:100400000320ADF800008DF8020069460148FFF7AF
:100410005BFF08BD000C014000BFFEE77047000015
:1004200070B5002100230F22C47804B3154C246852
:1004300004F4E064C4F5E064210AC1F10403CA4095
:10044000447804FA03F184781440214309010E4CE6
:100450000678A155047804F01F050124AC40057806
:100460006D11AD0005F1E025C5F8004109E0047803
:1004700004F01F050124AC40044D0678761145F8C0
:10048000264070BD0CED00E000E400E080E100E0FB
:1004900002490143024A1160704700000000FA055A
:1004A0000CED00E000200CE0002106E00022064BED
:1004B00003EBC0135A544A1CD1B28029F6DB421C0C
:1004C000D0B20828F0DB7047040000202DE9F0438B
:1004D00004460D4616461F46284638E0224631E0BF
:1004E000002A2DDB7F2A2BDC002829DB3F2827DC94
:1004F0004FEAE07C00EB5C7C4FEAEC0CDFF85880C4
:1005000008EBCC1C1CF802C003464FEAE07800EB75
:1005100058784FEAE808A0EBC8094FF0010808FA3C
:1005200009F82CEA080C01464FEAE07800EB58780D
:100530004FEAE808DFF8209009EBC81808F802C075
:10054000511C0AB2A1199142CADC411C08B2E91936
:100550008142C3DCBDE8F0830400002038B50024EC
:1005600006E0002500E06D1CB5F57A7FFBD3641C26
:10057000B4F57A7FF5D30121082000F0D3FA1420D6
:100580008DF8030003208DF802004FF48070ADF861
:10059000000069460848FFF797FE4FF40070ADF879
:1005A000000069460448FFF78FFE012000F06AFA58
:1005B000012000F073FA38BD000C014070B505460B
:1005C000002411E080212141294009B1012100E0EE
:1005D0000021084600F062FA012000F053FA0020E2
:1005E00000F050FA601CC4B2082CEBDB012000F0D4
:1005F00049FA002000F046FA70BD10B5012000F065
:100600004DFA012000F03EFA002000F047FA0020E9
:1006100000F038FA10BD10B5002000F03FFA0120BC
:1006200000F030FA012000F039FA10BD10B5FFF7E4
:1006300095FFAE2000F03EFAD52000F03BFA802076
:1006400000F038FAA82000F035FA3F2000F032FA26
:10065000D32000F02FFA002000F02CFA402000F008
:1006600029FAA12000F026FAC82000F023FADA20A7
:1006700000F020FA122000F01DFA812000F01AFA92
:10068000CF2000F017FAD92000F014FAF12000F082
:1006900011FADB2000F00EFA302000F00BFAA42053
:1006A00000F008FAA62000F005FA8D2000F002FA0A
:1006B000142000F0FFF9AF2000F0FCF9FFF7F2FE84
:1006C00000F0CCF910BD10B50246012000E0504307
:1006D0000B1EA1F10101FAD110BD70B505460C4603
:1006E00045F0B00000F0E6F9102141EA141000F0E6
:1006F000E1F904F00F0000F0DDF970BDF8B5064631
:100700000F4614461D46082D0CD1A4F120000E49B9
:1007100001EB00101023082239460090304600F00B
:1007200017F80FE0062D0DD1A4F1200000EB4000DA
:10073000064901EB40000823062239460090304666
:1007400000F006F8F8BD00008C0E00087C140008CC
:100750002DE9FF4F80460E469146DDF834B0002566
:1007600000244A4631464046039BFFF7AFFE00BFD8
:100770005EE0002558E008EB0500002852DB08EB9E
:1007800005007F284EDC3046F11706EB5171C91089
:100790000FB2F11706EB5171C910A6EBC10A002E7A
:1007A00005DA781E07B20AF108000FFA80FA381944
:1007B000002817DB3819072814DC3819224901EB07
:1007C000C01008EB0501405C04FB09511BF8011047
:1007D00001FA0AF1084339191B4A02EBC11108EB6F
:1007E000050288543819401C00281BDB3819401CAE
:1007F000072817DC3819401C134901EBC01008EB1F
:100800000501405C04FB09511BF80110CAF1080204
:10081000114108433919491C0B4A02EBC11108EB7D
:1008200005028854681CC5B24D45A4DB601CC4B2E7
:100830000399481EC11700EB5171012202EBE1013F
:10084000A14296DCBDE8FF8F040000202DE9F047AF
:100850000646894617461D46DDF82080002417E02D
:10086000281B411E0A20FFF72EFFB7FBF0F00A21DC
:10087000B0FBF1F201FB120000F1300A04FB086149
:1008800008B2434652464946FFF738FF601CC4B2DF
:10089000AC42E5DBBDE8F0872DE9FE4F07468A460E
:1008A000144698460025AB460026CBE0605D00F07C
:1008B000800058B94FF0010B2846691C8DB2205CAE
:1008C0008DF8040000208DF805006BE0605D00F0FD
:1008D000E000C02814D14FF0020B2846691C8DB2ED
:1008E000205C8DF80400605D00B9AFE02846691C0B
:1008F0008DB2205C8DF8050000208DF8060051E0D7
:10090000605D00F0F000E0281DD14FF0030B284699
:10091000691C8DB2205C8DF80400605D00B995E023
:100920002846691C8DB2205C8DF80500605D00B919
:100930008CE02846691C8DB2205C8DF806000020F2
:100940008DF807002EE0605D00F0F800F02826D159
:100950004FF0040B2846691C8DB2205C8DF8040012
:10096000605D00B972E02846691C8DB2205C8DF88C
:100970000500605D00B969E02846691C8DB2205C05
:100980008DF80600605D00B960E02846691C8DB2F4
:10099000205C8DF8070000208DF8080002E0681C3C
:1009A00085B24FE0BBF1010F0BD19DF80420B919BE
:1009B00008B243465146FFF7A1FE06EB080086B297
:1009C0003FE04FF000090EE009EB890101EB49110E
:1009D000204A881801A9FFF7F7FB00B90EE009F1DA
:1009E00001001FFA80F909EB890101EB4911194A4D
:1009F000881819A1FFF7E8FB0028E5D100BFB8F17E
:100A0000080F12D109EB890000EB49101149084485
:100A1000401DB919009008B210231A465146FFF73D
:100A200097FE06F1100086B20BE0B8F1060F08D170
:100A3000B91908B206233F225146FFF75FFEB01DE9
:100A400086B200BF605D00287FF430AF00BFBDE814
:100A5000FE8F0000B61600080000000010B500244C
:100A60000BE000212046FFF738FE054901EBC410DA
:100A7000802100F02FF8601CC4B2082CF1DB10BDFF
:100A80000400002010B5044622464FF4807102484D
:100A9000FFF7A7FC10BD0000000C014010B5044694
:100AA00022464FF400710248FFF79BFC10BD000086
:100AB000000C014010B50446FFF79FFD7820FFF7BA
:100AC0007DFD0020FFF77AFD2046FFF777FDFFF759
:100AD000A2FD10BD70B505460E46FFF78EFD7820CD
:100AE000FFF76CFD4020FFF769FD002404E0285D5E
:100AF000FFF764FD601CC4B2B442F8DBFFF78BFD66
:100B000070BD704729B1064AD2690243044BDA61CD
:100B100004E0034AD2698243014BDA617047000066
:100B20000010024029B1064A92690243044B9A61BF
:100B300004E0034A92698243014B9A6170470000C6
:100B400000100240704710B500F002F810BD000020
:100B50000CB50020019000903348006840F48030CC
:100B60003149086000BF3048006800F40030009050
:100B70000198401C0190009818B90198B0F5A06F39
:100B8000F1D12948006800F4003010B10120009034
:100B900001E0002000900098012843D1234800681C
:100BA00040F01000214908600846006820F003006A
:100BB00008600846006840F0020008601A48406873
:100BC000194948600846406848600846406840F453
:100BD000806048600846406820F47C104860084601
:100BE000406840F4E81048600846006840F08070B3
:100BF000086000BF0C48006800F000700028F9D0C1
:100C00000948406820F003000749486008464068EA
:100C100040F00200486000BF0348406800F00C004C
:100C20000828F9D10CBD000000100240002002404D
:100C30007047000010B51348006840F001001149EA
:100C4000086008464068104908400E494860084658
:100C500000680E4908400B4908600846006820F407
:100C6000802008600846406820F4FE0048604FF489
:100C70001F008860FFF767FF4FF0006004490860BD
:100C800010BD0000001002400000FFF8FFFFF6FE5C
:100C900008ED00E010B50121880700F01EF80128DA
:100CA00008D105480088401C0349088001218807B5
:100CB00000F004F810BD000000000020CA430282CA
:100CC000704721B1028842F00102028004E00288EC
:100CD0004FF6FE731A400280704730B5024600207E
:100CE00000230024158A05EA0103958905EA010419
:100CF00013B10CB1012000E0002030BD1AB183898E
:100D00000B43838102E083898B4383817047018990
:100D10004FF6F872114001817047000000220288EE
:100D20001D4B98420ED01D4B98420BD0B0F1804F16
:100D300008D01B4B984205D01A4B984202D01A4B50
:100D4000984204D14FF68F731A404B881A43174BC1
:100D5000984207D0164B984204D04FF6FF431A40F2
:100D6000CB881A4302808B8883850B8803850A4BC6
:100D700098420BD0094B984208D00E4B984205D0B0
:100D80000D4B984202D00D4B984201D10B7A03864D
:100D90000123838270470000002C01400034014091
:100DA0000004004000080040000C0040001000401B
:100DB0000014004000400140004401400048014050
:100DC0001FB501210846FFF79DFE4FF08040FFF759
:100DD0009EFF0020ADF80A00ADF8060041F61F4066
:100DE000ADF8080042F20F70ADF8040000208DF855
:100DF0000C0001A94FF08040FFF790FF012211463F
:100E00009007FFF77BFF4FF4A060FFF741FB1C202A
:100E10008DF8000001208DF8030002208DF80100FC
:100E200001208DF802006846FFF7FAFA01218807D1
:100E3000FFF747FF1FBD00BFFEE7000008B5FFF743
:100E4000D7FAFFF7F3FBFFF7BBFF08230BA2012143
:100E50000846FFF721FDFFF701FE0EE008200523FD
:100E600000900848028801212820FFF7EFFCFFF7D7
:100E7000F5FD03210448FFF7B2FAEFE74E554D3A6E
:100E80000000000000000020000C014000000000F5
:100E9000000000000000000000000000000000F85A
:100EA00000000000000000333000000000160E00BB
:100EB000160E0000000000000000000040C0784056
:100EC000C0784000043F04043F040400007088FC24
:100ED00008300000001820FF211E0000F008F0007C
:100EE000E018000000211C031E211E0000F00888ED
:100EF000700000001E212324192721100000001675
:100F00000E0000000000000000000000000000E0F3
:100F10001804020000000007182040000002041816
:100F2000E00000000040201807000000404080F072
:100F3000804040000202010F01020200000000F0A8
:100F4000000000000101011F01010100000000007C
:100F50000000000000B07000000000000000000071
:100F6000000000000001010101010101000000007A
:100F70000000000000303000000000000000000011
:100F800080601804006018060100000000E01008EE
:100F90000810E000000F102020100F00001010F8C3
:100FA000000000000020203F202000000070080802
:100FB0000888700000302824222130000030088882
:100FC000884830000018202020110E000000C020AA
:100FD00010F8000000070424243F240000F80888CB
:100FE000880808000019212020110E0000E0108858
:100FF00088180000000F112020110E00003808088A
:10100000C83808000000003F000000000070880899
:1010100008887000001C222121221C0000E010081A
:101020000810E0000000312222110F00000000C073
:10103000C00000000000003030000000000000C0D0
:10104000C0000000000080B0700000000000804080
:101050002010080000010204081020004040404019
:10106000404040000404040404040400000810206C
:1010700040800000002010080402010000704808B1
:101080000808F0000000003036010000C030C82819
:10109000E810E0000718272423140B000000C038D4
:1010A000E0000000203C23020227382008F888884E
:1010B00088700000203F202020110E00C03008085A
:1010C00008083800071820202010080008F8080831
:1010D0000810E000203F202020100F0008F888882A
:1010E000E8081000203F20202320180008F88888F6
:1010F000E8081000203F200003000000C03008086E
:101100000838000007182020221E020008F80800F6
:101110000008F808203F210101213F20000808F8BD
:10112000080800000020203F2020000000000808E0
:10113000F8080800C08080807F00000008F888C0A0
:1011400028180800203F20012638200008F8080051
:1011500000000000203F20202020300008F8F80088
:10116000F8F80800203F003F003F200008F830C09A
:101170000008F808203F200007183F00E01008088A
:101180000810E0000F10202020100F0008F80808B9
:101190000808F000203F210101010000E0100808CC
:1011A0000810E0000F18242438504F0008F88888F1
:1011B00088887000203F2000030C302000708808D1
:1011C000080838000038202121221C00180808F8DF
:1011D000080818000000203F2000000008F8080060
:1011E0000008F808001F202020201F000878880031
:1011F00000C83808000007380E010000F80800F8A1
:101200000008F800033C0700073C0300081868804A
:101210008068180820302C03032C30200838C800C0
:10122000C83808000000203F20000000100808080F
:10123000C83808002038262120201800000000FEB1
:10124000020202000000007F40404000000C30C05D
:1012500000000000000000010638C0000002020289
:10126000FE000000004040407F0000000020100809
:101270000408102000000000000000000000000032
:101280000000000080808080808080800002040850
:10129000000000000000000000000000000080804E
:1012A000808000000019242222223F2008F80080BC
:1012B00080000000003F112020110E00000000807F
:1012C00080800000000E112020201100000000800E
:1012D0008088F800000E112020103F200000808040
:1012E00080800000001F222222221300008080F054
:1012F000888888180020203F20200000000080807F
:1013000080808000006B94949493600008F80080C3
:1013100080800000203F210000203F20008098981E
:10132000000000000020203F20200000000000807E
:101330009898000000C08080807F000008F80000BE
:1013400080808000203F24022D302000000808F813
:10135000000000000020203F2020000080808080CE
:1013600080808000203F20003F20003F00808000E0
:101370008080000000203F2100203F20000080806E
:1013800080800000001F202020201F00808000801F
:101390008000000080FFA12020110E0000000080CE
:1013A00080808000000E112020A0FF8080808000BF
:1013B0008080800020203F212000010000008080EC
:1013C000808080000033242424241900008080E0E1
:1013D000808000000000001F2020000080800000AE
:1013E00000808000001F202020103F20808080008F
:1013F0000080808000010E3008060100808000809F
:10140000008080800F300C030C300F0000808000C3
:10141000808080000020312E0E31200080808000EE
:101420000080808080818E7018060100008080809E
:10143000808080000021302C22213000000000003C
:10144000807C020200000000003F404000000000DD
:10145000FF00000000000000FF0000000002027C0E
:10146000800000000040403F00000000008040403D
:10147000800000800000000000010100000000006A
:1014800000000000002F000000000700070000140B
:101490007F147F1400242A7F2A1200231308646219
:1014A00000364955225000000007000000001C22B1
:1014B0004100000041221C000014083E08140008EE
:1014C000083E0808000000A060000008080808089E
:1014D000000060600000002010080402003E514936
:1014E000453E0000427F40000042615149460021D4
:1014F00041454B31001814127F10002745454539EE
:10150000003C4A4949300001710905030036494948
:10151000493600064949291E000036360000000001
:10152000563600000008142241000014141414144C
:10153000000041221408000201510906003E4955ED
:10154000592E007C1211127C007F49494936003E19
:1015500041414122007F4141221C007F49494941CC
:10156000007F09090901003E4149497A007F0808C6
:10157000087F0000417F4100002040413F01007F83
:1015800008142241007F40404040007F020C027F4F
:10159000007F0408107F003E4141413E007F090961
:1015A0000906003E4151215E007F09192946004687
:1015B000494949310001017F0101003F4040403F5E
:1015C000001F2040201F003F4038403F00631408A8
:1015D0001463000708700807006151494543000083
:1015E0007F414100000204081020000041417F00BB
:1015F000000402010204004040404040000001029B
:101600000400002054545478007F48444438003883
:101610004444442000384444487F0038545454180B
:1016200000087E0901020018A4A4A47C007F08041D
:1016300004780000447D4000004080847D00007FED
:10164000102844000000417F4000007C041804780A
:10165000007C0804047800384444443800FC242406
:1016600024180018242418FC007C080404080048EE
:101670005454542000043F444020003C4040207C0F
:10168000001C2040201C003C4030403C00442810FE
:101690002844001CA0A0A07C004464544C440000DA
:1016A000087F41000000007F00000000417F08002B
:1016B000000804081008EFBC8C00000000000000C7
:1016C000000000000000000000000000005838008A
:1016D0000000000000000000000000E38082000025
:1016E00000000000000000000000000000000000FA
:1016F0000000182424180000000000000000000072
:10170000E4BDA00000008060F8074020180F08C862
:101710000808281800010000FF00100C0340807F1B
:101720000001061800E5A5BD00001010F01F10F024
:1017300000808282E2928A8680004022150816612B
:10174000000040807F0000000000E4B89600002008
:101750002020FE2020FF202020FF2020202000002D
:1017600000007F404047444444474040400000E779
:10177000958C0000000000FE929292FE929292FEE2
:101780000000000008080484621E010001FE02043B
:10179000040808000000000000FF010101310909F0
:1017A0000909897101010101FFFF8080808080802B
:1017B0009681808080808080FFFF01818181FD890A
:1017C00091A1C1FD81818101FFFF808080809F8880
:1017D0008482819F80808080FF00000000000000E4
:1017E00000000000000000000000000000000000F9
:1017F00000000000000000000000000000000000E9
:1018000000000000000000000000000000000000D8
:1018100000000000000000000000000000000000C8
:1018200000000000000000000000000000000000B8
:1018300000000000000000000000000000000000A8
:101840000000000000000000000000000000000098
:101850000000000000000000000000000000000088
:101860000000000000000000000000000000000078
:101870000000000000000000000000000000000068
:101880000000000000000000000000000000000058
:101890000000000000000000000000000000000048
:1018A0000000000000000000000000000000000038
:1018B0000000000000000000000000000000000028
:1018C0000000000000000000000000000000000018
:1018D0000000000000000000000000000000000008
:1018E000E0E0E0E0E0E0E0E0E0E0E0E0E0E0E0E0F8
:1018F000E0E0E0E0E0E0E0E0E0E0E0E0E0E0E0E0E8
:10190000E0E0E0E0E0E00000000000000000000097
:1019100000000000000000000000000000000000C7
:10192000000000000000000000000000E0E0E0E037
:10193000E0E0E0E0E0E0E0E0E0E0E0E0E0E0E0E0A7
:10194000E0E0E0E0E0E0E0E0E0E0E0E0E0E0E0E097
:10195000E0E00000000000000000000000000000C7
:10196000FFFFFFFFFFFFFFFFFFFFFFFFFFFFFFFF87
:10197000FFFFFFFFFFFFFFFFFFFFFFFFFFFFFFFF77
:10198000FFFFFFFFFFFF000000000000000000005D
:101990000000000000000000000000000000000047
:1019A000000000000000000000000000FFFFFFFF3B
:1019B000FFFFFFFFFFFFFFFFFFFFFFFFFFFFFFFF37
:1019C000FFFFFFFFFFFFFFFFFFFFFFFFFFFFFFFF27
:1019D000FFFF000000000000000000000000000009
:1019E0001F1F1F1F1F1F1F1F1F1F1F1F1F1F1F1F07
:1019F0001F1F1F1F1F1F1F1F1F1F1F1F1F1F1F1FF7
:101A00001F1F1F1F1F1F000000000000000000001C
:101A100000000000000000000000000000000000C6
:101A20000000000000000000000000001F1F1F1F3A
:101A30001F1F1F1F1F1F1F1F1F1F1F1F1F1F1F1FB6
:101A40001F1F1F1F1F1F1F1F1F1F1F1F1F1F1F1FA6
:101A50001F1F000000000000000000000000000048
:101A60000000000000000000000000000000000076
:101A70000000000000000000000000000000000066
:101A80000000000000000000000000000000000056
:101A90000000000000000000000000000000000046
:101AA0000000000000000000000000000000000036
:101AB0000000000000000000000000000000000026
:101AC0000000000000000000000000000000000016
:101AD0000000000000000000000000000000000006
:101AE00000000000000000000000000000000000F6
:101AF00000000000000000000000000000000000E6
:101B0000000000000000000000000000071F3F7FF1
:101B10007CF8F0F0F0F0787C3E3F3E7C78F0F0F01E
:101B2000F0F87C7F3F1F070000000000000000006D
:101B300000000000000000000000000000000000A5
:101B40000000000000000000000000000000000095
:101B50000000000000000000000000000000000085
:101B60000000000000000000000000000000000075
:101B70000000000000000000000000000000000065
:101B80000000000000000000000000000000000055
:101B90000000000000000000000000000000000045
:101BA0000000000000000000000000000000000035
:101BB0000000000000000000000000000000000025
:101BC0000000000000000000000000000000000015
:101BD0000000000000000000000000000000000005
:101BE00000000000000000000000000000000000F5
:101BF00000000000000000000000000000000000E5
:101C000000000000000000000000000000000000D4
:101C100000000000000000000000000000000000C4
:101C20000000000000000000000000000000008034
:101C300080C0E0E07070383838383838387070E07C
:101C4000E0C08080000000000000000000000000F4
:101C50000000000000000000000000000000000084
:101C6000000000000000000080E0F0F87C3E1F0F44
:101C70000703010000000000000000000000000059
:101C80000103070F1F3E7CF8F0E0C00000000000D9
:101C90000000000000000000000000000000000044
:101CA000000000000000000303030100000000002A
:101CB0000000000000000000000000000000000024
:101CC00000000000000000000103070706000000FC
:101CD0000000000000000000000000000000000004
:101CE00000000000000000000000000000000000F4
:101CF00000000000000000000000000000000000E4
:101D000000000000000000000000000000000000D3
:101D100000000000000000000000000000000000C3
:101D200000000000000000000000000000000000B3
:101D300000000000000000000000000000000000A3
:101D40000000000000000000000000000000000093
:101D50000000000000000000000000000000000083
:101D6000000044446464E4E4E4E4E4E4E4F4D4D44B
:101D700094D4D4D4D4D4D4D4D4D4D4D4D4D4CCCC73
:101D8000CCCCCCCCCCCCCCCCCCCCCC4C4C0C0808DB
:101D90000000000000000000000000000000000043
:101DA00000000405050505050505050505070606EA
:101DB00006060606060606060606060606060606C3
:101DC00006060606060604040404040404040404C7
:101DD00004000000000000000000000000000000FF
:101DE00000000000000000000000000000000000F3
:101DF00000000000000000000000000000000000E3
:101E000000000000000000000000000000000000D2
:101E100000000000000000000000000000000000C2
:101E20000000000000000000E0F0F0F0F0F0F0F042
:101E3000F0F0F0F0F0F0F0F0F0F0F0F0F0F0F0F0A2
:101E4000F0F0F0F0F0F0F0F0F0E000000000000042
:101E50000000000000000000000000000000000082
:101E6000000000000000000003070707070707073E
:101E700007070707070707070707070707070707F2
:101E80000707070707070707070300000000000010
:101E90000000000000000000000000000000000042
:101EA0000000000000000000000000000000000032
:101EB0000000000000000000000000000000000022
:101EC0000000000000000000000000000000000012
:101ED000000000000000000000000000FC1E0008E0
:101EE000000000200400000028010008001F000876
:101EF00004000020640A0000440100080000000003
:04000005080000ED02
:00000001FF
