:020000040800F2
:10000000600A00206D010008810300085103000808
:100010007D030008270200085107000800000000C7
:1000200000000000000000000000000001060008C1
:100030002B02000800000000DF050008ED060008A4
:100040008701000887010008870100088701000870
:100050008701000887010008870100088701000860
:100060008701000887010008870100088701000850
:100070008701000887010008870100088701000840
:100080008701000887010008870100088701000830
:100090008701000887010008870100088701000820
:1000A0008701000887010008870100088701000810
:1000B0008701000887010008870100088701000800
:1000C00087010008870100088701000887010008F0
:1000D00087010008870100088701000887010008E0
:1000E00087010008870100088701000800F002F876
:1000F00000F02CF80AA090E8000C82448344AAF196
:100100000107DA4501D100F021F8AFF2090EBAE893
:100110000F0013F0010F18BFFB1A43F0010318473B
:100120004C0600005C060000002300240025002689
:10013000103A28BF78C1FBD8520728BF30C148BF4A
:100140000B6070471FB51FBD10B510BD00F036F82D
:100150001146FFF7F7FF00F0FDFA00F054F803B482
:10016000FFF7F2FF03BC00F057F800000948804792
:1001700009480047FEE7FEE7FEE7FEE7FEE7FEE789
:10018000FEE7FEE7FEE7FEE704480549054A064BA1
:1001900070470000F1060008ED0000086004002030
:1001A000600A00206006002060060020704770474B
:1001B0007047000000487047000400207546FFF7B4
:1001C000F9FFAE4605006946534620F00700854614
:1001D00018B020B5FFF7D8FFBDE820404FF000066B
:1001E0004FF000074FF000084FF0000B21F007011F
:1001F000AC46ACE8C009ACE8C009ACE8C009ACE862
:10020000C0098D46704710B50446AFF30080204604
:10021000BDE81040FFF7A3BF01491820ABBEFEE7C1
:1002200026000200704700BFFEE770472DE9F0414D
:10023000024600250026002000230024002791F814
:1002400003C00CF00F0591F803C00CF0100CBCF1CA
:10025000000F03D091F802C04CEA050591F800C0E8
:10026000BCF1000F31D0146800202BE04FF0010CDE
:100270000CFA00F3B1F800C00CEA03069E4220D14C
:1002800083004FF00F0C0CFA03F7BC4305FA03FC94
:100290004CEA040491F803C0BCF1280F06D14FF0DA
:1002A000010C0CFA00FCC2F814C00AE091F803C07B
:1002B000BCF1480F05D14FF0010C0CFA00FCC2F85C
:1002C00010C0401C0828D1D31460B1F800C0BCF1A4
:1002D000FF0F34DD546800202EE000F1080C4FF0D1
:1002E000010808FA0CF3B1F800C00CEA03069E42BC
:1002F00021D183004FF00F0C0CFA03F7BC4305FA31
:1003000003FC4CEA040491F803C0BCF1280F05D1AA
:1003100000F1080C08FA0CF8C2F8148091F803C038
:10032000BCF1480F07D100F1080C4FF0010808FAA2
:100330000CF8C2F81080401C0828CED35460BDE8E9
:10034000F081016170470AB1016100E041617047CD
:1003500000BFFEE708B50121082000F041F9102098
:100360008DF803000320ADF800008DF80200694607
:100370000148FFF75BFF08BD000C014000BFFEE72E
:100380007047000000200CE0002106E00022064B30
:1003900003EBC0135A544A1CD1B28029F6DB421C2D
:1003A000D0B20828F0DB70470000002038B50024E8
:1003B00006E0002500E06D1CB5F57A7FFBD3641CD8
:1003C000B4F57A7FF5D30121082000F009F9142053
:1003D0008DF8030003208DF802004FF48070ADF813
:1003E000000069460848FFF721FF4FF40070ADF8A0
:1003F000000069460448FFF719FF012000F0B0F83B
:10040000012000F0B9F838BD000C014070B5054678
:10041000002411E080212141294009B1012100E09F
:100420000021084600F0A8F8012000F099F800200B
:1004300000F096F8601CC4B2082CEBDB012000F041
:100440008FF8002000F08CF870BD10B5012000F08E
:1004500093F8012000F084F8002000F08DF80020CF
:1004600000F07EF810BD10B5002000F085F80120E6
:1004700000F076F8012000F07FF810BD10B5FFF70E
:1004800095FFAE2000F084F8D52000F081F88020A0
:1004900000F07EF8A82000F07BF83F2000F078F80C
:1004A000D32000F075F8002000F072F8402000F032
:1004B0006FF8A12000F06CF8C82000F069F8DA208D
:1004C00000F066F8122000F063F8812000F060F878
:1004D000CF2000F05DF8D92000F05AF8F12000F0AC
:1004E00057F8DB2000F054F8302000F051F8A42039
:1004F00000F04EF8A62000F04BF88D2000F048F8F0
:10050000142000F045F8AF2000F042F8FFF73AFF62
:1005100000F012F810BD70B505460C4645F0B0006D
:1005200000F036F8102141EA141000F031F804F020
:100530000F0000F02DF870BD10B500240BE0002175
:100540002046FFF7E8FF054901EBC410802100F0C9
:100550002FF8601CC4B2082CF1DB10BD0000002095
:1005600010B5044622464FF480710248FFF7EBFEB7
:1005700010BD0000000C014010B5044622464FF4A7
:1005800000710248FFF7DFFE10BD0000000C0140C3
:1005900010B50446FFF759FF7820FFF737FF00201A
:1005A000FFF734FF2046FFF731FFFFF75CFF10BD78
:1005B00070B505460E46FFF748FF7820FFF726FF87
:1005C0004020FFF723FF002404E0285DFFF71EFF13
:1005D000601CC4B2B442F8DBFFF745FF70BD704742
:1005E00029B1064A92690243044B9A6104E0034A26
:1005F00092698243014B9A617047000000100240EB
:10060000704710B500F002F810BD00000CB50020D6
:10061000019000903348006840F480303149086010
:1006200000BF3048006800F4003000900198401C82
:100630000190009818B90198B0F5A06FF1D1294840
:10064000006800F4003010B10120009001E00020AB
:1006500000900098012843D12348006840F0100022
:10066000214908600846006820F003000860084639
:10067000006840F0020008601A4840681949486064
:100680000846406848600846406840F4806048601A
:100690000846406820F47C1048600846406840F4F2
:1006A000E81048600846006840F08070086000BFAD
:1006B0000C48006800F000700028F9D00948406834
:1006C00020F00300074948600846406840F00200F7
:1006D000486000BF0348406800F00C000828F9D1CA
:1006E0000CBD0000001002400020024070470000D6
:1006F00010B51348006840F0010011490860084631
:100700004068104908400E494860084600680E4994
:1007100008400B4908600846006820F48020086003
:100720000846406820F4FE0048604FF41F008860CF
:10073000FFF767FF4FF000600449086010BD00003C
:10074000001002400000FFF8FFFFF6FE08ED00E099
:1007500000BFFEE7FFF7FEFDFFF790FE03E0032179
:100760000148FFF7EEFDFAE7000C01407C070008A6
:0C07700000000020600A000028010008C2
:04000005080000ED02
:00000001FF
